:020000040800F2
:1000000000280020B90B00085D0B0008630B0008F6
:10001000690B00086F0B0008750B0008000000005A
:100020000000000000000000000000007B0B000842
:10003000870B000800000000930B00089F0B0008CE
:10004000010C0008010C0008010C0008010C00085C
:10005000010C0008010C0008010C0008010C00084C
:10006000010C0008010C0008010C0008010C00083C
:10007000010C0008010C0008010C0008010C00082C
:10008000010C0008010C0008010C0008010C00081C
:10009000010C0008010C0008010C0008010C00080C
:1000A000010C0008010C0008010C0008010C0008FC
:1000B000010C0008010C000800000000010C000801
:1000C000010C00080000000000000000010C000806
:1000D00000000000010C0008010C000800000000F6
:1000E000010C0008010C0008010C000800000000D1
:1000F0000000000000000000000000000000000000
:0C01000000000000000000005FF808F1A3
:10010C0010B5054C237833B9044B13B10448AFF345
:10011C0000800123237010BD0C00002000000000A3
:10012C000C1A000808B5034B1BB103490348AFF385
:10013C00008008BD00000000100000200C1A000810
:10014C0080B584B000AF00F057FD00F0DFF800F090
:10015C0019F90023FB600323BB6005237B60FB685C
:10016C00032B00F2938001A252F823F089010008BE
:10017C00CD010008110200085502000800222021C0
:10018C00614801F01DF8012240215F4801F018F888
:10019C00012280215C4801F013F801224FF4807198
:1001AC00594801F00DF800224FF40071564801F047
:1001BC0007F801224FF48061534801F001F865E023
:1001CC0001222021504800F0FBFF012240214E4823
:1001DC0000F0F6FF002280214B4800F0F1FF0122D5
:1001EC004FF48071484800F0EBFF00224FF400718F
:1001FC00454800F0E5FF01224FF48061424800F0D1
:10020C00DFFF43E0012220213F4800F0D9FF00220C
:10021C0040213D4800F0D4FF012280213A4800F0F3
:10022C00CFFF00224FF48071374800F0C9FF012244
:10023C004FF40071344800F0C3FF01224FF4806189
:10024C00314800F0BDFF21E0012220212E4800F0B2
:10025C00B7FF002240212C4800F0B2FF0122802180
:10026C00294800F0ADFF01224FF48071264800F0C0
:10027C00A7FF01224FF40071234800F0A1FF0022D8
:10028C004FF48061204800F09BFF00BFBB685A1EF2
:10029C00BA60184600F0CCF87B685A1E7A60184693
:1002AC0000F054FAFB68002B06D1BB68002B03D17D
:1002BC000123FB600223BB60FB68012B08D1BB68E8
:1002CC00002B05D10223FB600523BB6003237B605D
:1002DC00FB68022B06D17B68002B03D10323FB6048
:1002EC0002237B60FB68032B08D17B68002B05D1B4
:1002FC000023FB600323BB6005237B604FF47A7003
:10030C0000F0DCFC2BE700BF0008014080B590B08A
:10031C0000AF07F1180328220021184601F068FBF2
:10032C003B1D00221A605A609A60DA601A6102233F
:10033C00BB610123BB621023FB6200237B6307F1CB
:10034C001803184600F054FF0346002B01D000F0B0
:10035C00C7FB0F237B600023BB600023FB600023E3
:10036C003B6100237B613B1D0021184601F0C0F965
:10037C000346002B01D000F0B3FB00BF4037BD4655
:10038C0080BD000080B586B000AF07F108030022E5
:10039C001A605A609A60DA60224B9B69214A43F0DA
:1003AC00040393611F4B9B6903F004037B607B6820
:1003BC001C4B9B691B4A43F008039361194B9B69C7
:1003CC0003F008033B603B6800224FF4FC611648C5
:1003DC0000F0F6FE002243F6FF71144800F0F0FE28
:1003EC004FF4FC63BB600123FB6000233B610223E1
:1003FC007B6107F1080319460B4800F067FD43F6D3
:10040C00FF73BB600123FB6000233B6102237B6114
:10041C0007F108031946054800F058FD00BF1837CE
:10042C00BD4680BD0010024000080140000C014098
:10043C0080B582B000AF78607B68092B00F28081B8
:10044C0001A252F823F000BF7D040008C504000887
:10045C000D050008550500089D050008E505000878
:10046C002D06000875060008BD06000805070008E3
:10047C0000220121B44800F0A3FE00220221B24860
:10048C0000F09EFE00220421AF4800F099FE0022ED
:10049C000821AD4800F094FE00221021AA4800F07B
:1004AC008FFE00222021A84800F08AFE0122402164
:1004BC00A54800F085FE43E101220121A24800F08D
:1004CC007FFE00220221A04800F07AFE00220421C7
:1004DC009D4800F075FE012208219B4800F070FE3B
:1004EC0001221021984800F06BFE01222021964831
:1004FC0000F066FE01224021934800F061FE1FE1EE
:10050C0000220121904800F05BFE002202218E485F
:10051C0000F056FE012204218B4800F051FE00220F
:10052C000821894800F04CFE00221021864800F07A
:10053C0047FE01222021844800F042FE0022402187
:10054C00814800F03DFEFBE0002201217E4800F0D6
:10055C0037FE002202217C4800F032FE00220421EA
:10056C00794800F02DFE00220821774800F028FE83
:10057C0001221021744800F023FE01222021724830
:10058C0000F01EFE002240216F4800F019FED7E05B
:10059C00012201216C4800F013FE002202216A485E
:1005AC0000F00EFE00220421674800F009FE012233
:1005BC000821654800F004FE01221021624800F079
:1005CC00FFFD00222021604800F0FAFD00224021AE
:1005DC005D4800F0F5FDB3E0002201215A4800F01F
:1005EC00EFFD01220221584800F0EAFD002204210F
:1005FC00554800F0E5FD00220821534800F0E0FDCD
:10060C0001221021504800F0DBFD002220214E4831
:10061C0000F0D6FD002240214B4800F0D1FD8FE0C8
:10062C0000220121484800F0CBFD0122022146485E
:10063C0000F0C6FD00220421434800F0C1FD002259
:10064C000821414800F0BCFD002210213E4800F07A
:10065C00B7FD002220213C4800F0B2FD00224021D1
:10066C00394800F0ADFD6BE000220121364800F066
:10067C00A7FD00220221344800F0A2FD0022042133
:10068C00314800F09DFD012208212F4800F098FD13
:10069C00012210212C4800F093FD012220212A4830
:1006AC0000F08EFD01224021274800F089FD47E033
:1006BC0000220121244800F083FD0022022122485F
:1006CC0000F07EFD002204211F4800F079FD00227D
:1006DC0008211D4800F074FD002210211A4800F07A
:1006EC006FFD00222021184800F06AFD00224021F5
:1006FC00154800F065FD23E000220121124800F0AE
:10070C005FFD00220221104800F05AFD0022042156
:10071C000D4800F055FD002208210B4800F050FD5B
:10072C0001221021084800F04BFD00222021064830
:10073C0000F046FD00224021034800F041FD00BFBF
:10074C0000BF0837BD4680BD000C014080B582B0AB
:10075C0000AF78607B68092B00F2BC8101A252F8D3
:10076C0023F000BF99070008ED07000841080008B6
:10077C0095080008E90800083D09000891090008DF
:10078C00E5090008390A00088D0A000800228021BA
:10079C00D24800F015FD00224FF48071CF4800F0D4
:1007AC000FFD00224FF40071CC4800F009FD00222F
:1007BC004FF48061C94800F003FD00224FF4006142
:1007CC00C64800F0FDFC00224FF48051C34800F0F5
:1007DC00F7FC01224FF40051C04800F0F1FC79E124
:1007EC0001228021BD4800F0EBFC00224FF4807107
:1007FC00BA4800F0E5FC00224FF40071B74800F055
:10080C00DFFC01224FF48061B44800F0D9FC0122D6
:10081C004FF40061B14800F0D3FC01224FF4805139
:10082C00AE4800F0CDFC01224FF40051AB4800F073
:10083C00C7FC4FE100228021A84800F0C1FC002237
:10084C004FF48071A54800F0BBFC01224FF40071FD
:10085C00A24800F0B5FC00224FF480619F4800F0E4
:10086C00AFFC00224FF400619C4800F0A9FC01226F
:10087C004FF48051994800F0A3FC00224FF4005132
:10088C00964800F09DFC25E100228021934800F061
:10089C0097FC00224FF48071904800F091FC0022EC
:1008AC004FF400718D4800F08BFC00224FF48061F6
:1008BC008A4800F085FC01224FF40061874800F063
:1008CC007FFC01224FF48051844800F079FC002217
:1008DC004FF40051814800F073FCFBE001228021B1
:1008EC007E4800F06DFC00224FF480717B4800F0D4
:1008FC0067FC00224FF40071784800F061FC012283
:10090C004FF48061754800F05BFC01224FF40061EC
:10091C00724800F055FC00224FF480516F4800F0F3
:10092C004FFC00224FF400516C4800F049FCD1E020
:10093C0000228021694800F043FC01224FF48071B1
:10094C00664800F03DFC00224FF40071634800F053
:10095C0037FC00224FF48061604800F031FC01222A
:10096C004FF400615D4800F02BFC00224FF48051E5
:10097C005A4800F025FC00224FF40051574800F073
:10098C001FFCA7E000228021544800F019FC012232
:10099C004FF48071514800F013FC00224FF40071A9
:1009AC004E4800F00DFC00224FF480614B4800F0E3
:1009BC0007FC00224FF40061484800F001FC0022C3
:1009CC004FF48051454800F0FBFB00224FF40051DE
:1009DC00424800F0F5FB7DE0002280213F4800F00A
:1009EC00EFFB00224FF480713C4800F0E9FB002241
:1009FC004FF40071394800F0E3FB01224FF48061A1
:100A0C00364800F0DDFB01224FF40061334800F062
:100A1C00D7FB01224FF48051304800F0D1FB01226A
:100A2C004FF400512D4800F0CBFB53E00022802105
:100A3C002A4800F0C5FB00224FF48071274800F0D3
:100A4C00BFFB00224FF40071244800F0B9FB0022D8
:100A5C004FF48061214800F0B3FB00224FF4006199
:100A6C001E4800F0ADFB00224FF480511B4800F0F3
:100A7C00A7FB00224FF40051184800F0A1FB29E01D
:100A8C0000228021154800F09BFB00224FF480715E
:100A9C00124800F095FB00224FF400710F4800F053
:100AAC008FFB00224FF480610C4800F089FB01227F
:100ABC004FF40061094800F083FB00224FF4805191
:100ACC00064800F07DFB00224FF40051034800F073
:100ADC0077FB00BF00BF0837BD4680BD000C01404E
:100AEC0080B400AF72B600BFFEE7000080B485B0E2
:100AFC0000AF154B9B69144A43F001039361124BF1
:100B0C009B6903F00103BB60BB680F4BDB690E4AAA
:100B1C0043F08053D3610C4BDB6903F080537B6053
:100B2C007B680A4B5B68FB60FB6823F0E063FB604F
:100B3C00FB6843F08063FB60044AFB68536000BFB2
:100B4C001437BD4680BC70470010024000000140C5
:100B5C0080B400AFFEE780B400AFFEE780B400AF16
:100B6C00FEE780B400AFFEE780B400AFFEE780B4D0
:100B7C0000AF00BFBD4680BC704780B400AF00BF63
:100B8C00BD4680BC704780B400AF00BFBD4680BC82
:100B9C00704780B500AF00F075F800BF80BD80B421
:100BAC0000AF00BFBD4680BC70470000FFF7F7FFE9
:100BBC000B480C490C4A002302E0D458C4500433AF
:100BCC00C4188C42F9D3094A094C002301E0136084
:100BDC000432A242FBD300F0E7FEFFF7B1FA7047F4
:100BEC00000000200C000020501A00080C0000200F
:100BFC002C000020FEE7000080B500AF084B1B68FE
:100C0C00074A43F010031360032000F02BF90F2068
:100C1C0000F008F8FFF76AFF0023184680BD00BFFC
:100C2C000020024080B582B000AF7860124B1A6889
:100C3C00124B1B7819464FF47A73B3FBF1F3B2FBEA
:100C4C00F3F3184600F035F90346002B01D00123CD
:100C5C000EE07B680F2B0AD8002279684FF0FF302A
:100C6C0000F00BF9064A7B681360002300E00123B7
:100C7C0018460837BD4680BD000000200800002043
:100C8C000400002080B400AF054B1B781A46054BBE
:100C9C001B681344034A136000BFBD4680BC7047F9
:100CAC00080000202800002080B400AF024B1B6815
:100CBC001846BD4680BC70472800002080B584B023
:100CCC0000AF7860FFF7F0FFB8607B68FB60FB68F3
:100CDC00B3F1FF3F05D00A4B1B781A46FB6813444F
:100CEC00FB6000BFFFF7E0FF0246BB68D31AFA684F
:100CFC009A42F7D800BF00BF1037BD4680BD00BF79
:100D0C000800002080B485B000AF78607B6803F0E9
:100D1C000703FB600C4BDB68BB60BA684FF6FF0344
:100D2C001340BB60FB681A02BB68134343F0BF63FC
:100D3C0043F40033BB60044ABB68D36000BF143774
:100D4C00BD4680BC704700BF00ED00E080B400AF32
:100D5C00044BDB681B0A03F007031846BD4680BC36
:100D6C00704700BF00ED00E080B483B000AF0346D5
:100D7C003960FB7197F90730002B0ADB3B68DAB25C
:100D8C000C4997F907301201D2B20B4483F80023B7
:100D9C000AE03B68DAB20849FB7903F00F03043B25
:100DAC001201D2B20B441A7600BF0C37BD4680BC80
:100DBC00704700BF00E100E000ED00E080B489B0B6
:100DCC0000AFF860B9607A60FB6803F00703FB6161
:100DDC00FB69C3F10703042B28BF0423BB61FB6928
:100DEC000433062B02D9FB69033B00E000237B6133
:100DFC004FF0FF32BB6902FA03F3DA43BB681A40C7
:100E0C007B699A404FF0FF317B6901FA03F3D943B8
:100E1C007B680B40134318462437BD4680BC704793
:100E2C0080B582B000AF78607B68013BB3F1807F06
:100E3C0001D301230FE00A4A7B68013B53600F2169
:100E4C004FF0FF30FFF790FF054B00229A60044BE8
:100E5C0007221A60002318460837BD4680BD00BF24
:100E6C0010E000E080B582B000AF78607868FFF7E2
:100E7C0049FF00BF0837BD4680BD80B586B000AFC6
:100E8C000346B9607A60FB7300237B61FFF75EFF5A
:100E9C0078617A68B9687869FFF790FF024697F92C
:100EAC000F3011461846FFF75FFF00BF1837BD46DD
:100EBC0080BD80B582B000AF78607868FFF7B0FF76
:100ECC00034618460837BD4680BD000080B48BB081
:100EDC0000AF7860396000237B6200233B6248E1FD
:100EEC0001227B6A02FA03F3FB613B681B68FA6917
:100EFC001340BB61BA69FB699A4240F037813B6889
:100F0C005B68A34A93425ED0A14A934275D8A14A2A
:100F1C00934258D09F4A93426FD89F4A934252D0E3
:100F2C009D4A934269D89D4A93424CD09B4A934226
:100F3C0063D89B4A934246D0994A93425DD8122B70
:100F4C002AD8122B59D801A252F823F0D30F00083B
:100F5C00AD0F0008BF0F00080110000807100008B3
:100F6C0007100008071000080710000807100008F9
:100F7C0007100008071000080710000807100008E9
:100F8C0007100008071000080710000807100008D9
:100F9C00B50F0008C90F0008824A934213D02CE009
:100FAC003B68DB683B6229E03B68DB6804333B62EF
:100FBC0024E03B68DB6808333B621FE03B68DB687E
:100FCC000C333B621AE03B689B68002B02D1042374
:100FDC003B6213E03B689B68012B05D108233B6205
:100FEC007B68FA691A6109E008233B627B68FA693D
:100FFC005A6103E000233B6200E000BFBB69FF2B9A
:10100C0001D87B6801E07B6804337B61BB69FF2BF3
:10101C0002D87B6A9B0002E07B6A083B9B003B6129
:10102C007B691A680F213B6901FA03F3DB431A4011
:10103C00396A3B6901FA03F31A437B691A603B680E
:10104C005B6803F08053002B00F09080564B9B693B
:10105C00554A43F001039361534B9B6903F0010321
:10106C00BB60BB68514A7B6A9B08023352F8233041
:10107C00FB607B6A03F003039B000F2202FA03F36D
:10108C00DB43FA681340FB607B68494A93420DD0FE
:10109C007B68484A934207D07B68474A934201D108
:1010AC00022304E0032302E0012300E000237A6A18
:1010BC0002F0030292009340FA681343FB603B4931
:1010CC007B6A9B080233FA6841F823203B685B6813
:1010DC0003F48013002B06D0384B9A683749BB6950
:1010EC0013438B6006E0354B9A68BB69DB4333498D
:1010FC0013408B603B685B6803F40013002B06D035
:10110C002E4BDA682D49BB691343CB6006E02B4BA1
:10111C00DA68BB69DB4329491340CB603B685B68E9
:10112C0003F40033002B06D0244B5A682349BB69C7
:10113C0013434B6006E0214B5A68BB69DB431F49E4
:10114C0013404B603B685B6803F48033002B06D084
:10115C001A4B1A681949BB6913430B6006E0174B0D
:10116C001A68BB69DB43154913400B607B6A01337A
:10117C007B623B681A687B6A22FA03F3002B7FF4CC
:10118C00AFAE00BF00BF2C37BD4680BC704700BF60
:10119C00000032100000311000002210000021105D
:1011AC00000012100000111000100240000001405D
:1011BC0000080140000C01400010014000040140F7
:1011CC0080B483B000AF78600B467B8013467B7095
:1011DC007B78002B03D07A887B681A6103E07B88CC
:1011EC001A047B681A6100BF0C37BD4680BC70477F
:1011FC0080B586B000AF78607B68002B01D10123ED
:10120C006CE27B681B6803F00103002B00F0878005
:10121C00924B5B6803F00C03042B0CD08F4B5B6878
:10122C0003F00C03082B12D18C4B5B6803F4803356
:10123C00B3F5803F0BD1894B1B6803F40033002BB3
:10124C006CD07B685B68002B68D1012346E27B681D
:10125C005B68B3F5803F06D1804B1B687F4A43F433
:10126C00803313602EE07B685B68002B0CD17B4BCA
:10127C001B687A4A23F480331360784B1B68774AD7
:10128C0023F4802313601DE07B685B68B3F5A02F0B
:10129C000CD1724B1B68714A43F4802313606F4B63
:1012AC001B686E4A43F4803313600BE06B4B1B6876
:1012BC006A4A23F480331360684B1B68674A23F433
:1012CC00802313607B685B68002B13D0FFF7ECFC6A
:1012DC00386108E0FFF7E8FC02463B69D31A642B3F
:1012EC0001D90323FAE15D4B1B6803F40033002B97
:1012FC00F0D014E0FFF7D8FC386108E0FFF7D4FC1D
:10130C0002463B69D31A642B01D90323E6E1534B04
:10131C001B6803F40033002BF0D100E000BF7B68A6
:10132C001B6803F00203002B63D04C4B5B6803F08B
:10133C000C03002B0BD0494B5B6803F00C03082B00
:10134C001CD1464B5B6803F48033002B16D1434B06
:10135C001B6803F00203002B05D07B681B69012B73
:10136C0001D00123BAE13D4B1B6823F0F8027B68E6
:10137C005B69DB00394913430B603AE07B681B69FE
:10138C00002B20D0364B01221A60FFF78DFC386100
:10139C0008E0FFF789FC02463B69D31A022B01D9FE
:1013AC0003239BE12D4B1B6803F00203002BF0D0B1
:1013BC002A4B1B6823F0F8027B685B69DB0027492A
:1013CC0013430B6015E0264B00221A60FFF76CFCF0
:1013DC00386108E0FFF768FC02463B69D31A022B20
:1013EC0001D903237AE11D4B1B6803F00203002B88
:1013FC00F0D17B681B6803F00803002B3AD07B68A4
:10140C009B69002B19D0174B01221A60FFF74CFC7B
:10141C00386108E0FFF748FC02463B69D31A022BFF
:10142C0001D903235AE10D4B5B6A03F00203002B35
:10143C00F0D0012000F09AFA1CE00A4B00221A604E
:10144C00FFF732FC38610FE0FFF72EFC02463B69D8
:10145C00D31A022B08D9032340E100BF001002402D
:10146C0000004242800442429E4B5B6A03F002033E
:10147C00002BE9D17B681B6803F00403002B00F000
:10148C00A6800023FB75974BDB6903F08053002B80
:10149C000DD1944BDB69934A43F08053D361914B4C
:1014AC00DB6903F08053BB60BB680123FB758E4B7B
:1014BC001B6803F48073002B18D18B4B1B688A4A72
:1014CC0043F480731360FFF7EFFB386108E0FFF71C
:1014DC00EBFB02463B69D31A642B01D90323FDE0D5
:1014EC00814B1B6803F48073002BF0D07B68DB68A6
:1014FC00012B06D17B4B1B6A7A4A43F00103136222
:10150C002DE07B68DB68002B0CD1764B1B6A754A8F
:10151C0023F001031362734B1B6A724A23F004031A
:10152C0013621CE07B68DB68052B0CD16D4B1B6ACE
:10153C006C4A43F0040313626A4B1B6A694A43F01A
:10154C00010313620BE0674B1B6A664A23F001032D
:10155C001362644B1B6A634A23F0040313627B68B7
:10156C00DB68002B15D0FFF79FFB38610AE0FFF713
:10157C009BFB02463B69D31A41F28832934201D954
:10158C000323ABE0574B1B6A03F00203002BEED096
:10159C0014E0FFF789FB38610AE0FFF785FB024690
:1015AC003B69D31A41F28832934201D9032395E067
:1015BC004C4B1B6A03F00203002BEED1FB7D012B7D
:1015CC0005D1484BDB69474A23F08053D3617B68D4
:1015DC00DB69002B00F08180424B5B6803F00C034D
:1015EC00082B61D07B68DB69022B46D13F4B002274
:1015FC001A60FFF759FB386108E0FFF755FB02460C
:10160C003B69D31A022B01D9032367E0354B1B68C6
:10161C0003F00073002BF0D17B681B6AB3F5803F9D
:10162C0008D1304B5B6823F400327B689B682D49F2
:10163C0013434B602B4B5B6823F474127B68196A61
:10164C007B685B6A0B43274913434B60274B012292
:10165C001A60FFF729FB386108E0FFF725FB02460B
:10166C003B69D31A022B01D9032337E01D4B1B68AE
:10167C0003F00073002BF0D02FE01C4B00221A60FB
:10168C00FFF712FB386108E0FFF70EFB02463B69DF
:10169C00D31A022B01D9032320E0124B1B6803F051
:1016AC000073002BF0D118E07B68DB69012B01D1B2
:1016BC00012313E00B4B5B68FB60FB6803F4803287
:1016CC007B681B6A9A4206D1FB6803F470127B6834
:1016DC005B6A9A4201D0012300E0002318461837B8
:1016EC00BD4680BD001002400070004060004242C8
:1016FC0080B584B000AF786039607B68002B01D175
:10170C000123D0E06A4B1B6803F007033A689A4246
:10171C0010D9674B1B6823F0070265493B681343DC
:10172C000B60634B1B6803F007033A689A4201D0C5
:10173C000123B8E07B681B6803F00203002B20D068
:10174C007B681B6803F00403002B05D0594B5B68C6
:10175C00584A43F4E06353607B681B6803F008034A
:10176C00002B05D0534B5B68524A43F460535360D3
:10177C00504B5B6823F0F0027B689B684D49134328
:10178C004B607B681B6803F00103002B40D07B6827
:10179C005B68012B07D1474B1B6803F40033002B0C
:1017AC0015D101237FE07B685B68022B07D1414B8D
:1017BC001B6803F00073002B09D1012373E03D4B30
:1017CC001B6803F00203002B01D101236BE0394BA2
:1017DC005B6823F003027B685B68364913434B60FC
:1017EC00FFF762FAF8600AE0FFF75EFA0246FB6860
:1017FC00D31A41F28832934201D9032353E02D4B83
:10180C005B6803F00C027B685B689B009A42EBD12F
:10181C00274B1B6803F007033A689A4210D2244BFB
:10182C001B6823F0070222493B6813430B60204BD3
:10183C001B6803F007033A689A4201D0012332E097
:10184C007B681B6803F00403002B08D0194B5B6802
:10185C0023F4E0627B68DB68164913434B607B68BA
:10186C001B6803F00803002B09D0124B5B6823F4B0
:10187C0060527B681B69DB000E4913434B6000F020
:10188C0021F802460B4B5B681B0903F00F030A4956
:10189C00CB5C22FA03F3094A1360094B1B68184608
:1018AC00FFF7C0F9002318461037BD4680BD00BFB6
:1018BC000020024000100240241A00080000002002
:1018CC000400002080B487B000AF0023FB6000232D
:1018DC00BB6000237B6100237B6000233B611E4BBC
:1018EC005B68FB60FB6803F00C03042B02D0082B35
:1018FC0003D027E0194B3B6127E0FB689B0C03F0FE
:10190C000F03174AD35C7B60FB6803F48033002B16
:10191C0010D0114B5B685B0C03F00103114AD35CD4
:10192C00BB607B680D4A02FB03F2BB68B2FBF3F3AE
:10193C007B6104E07B680C4A02FB03F37B617B69EF
:10194C003B6102E0054B3B6100BF3B6918461C370D
:10195C00BD4680BC704700BF0010024000127A00E8
:10196C00341A0008441A000800093D0080B485B000
:10197C0000AF78600A4B1B680A4AA2FB03235B0A80
:10198C007A6802FB03F3FB6000BFFB685A1EFA6027
:10199C00002BF9D100BF00BF1437BD4680BC704787
:1019AC0000000020D34D621070B500260C4D0D4C7C
:1019BC00641BA410A64209D100F022F800260A4D9F
:1019CC000A4C641BA410A64205D170BD55F8043B0B
:1019DC0098470136EEE755F8043B98470136F2E795
:1019EC00481A0008481A0008481A00084C1A00083F
:1019FC0003460244934200D1704703F8011BF9E7F8
:101A0C00F8B500BFF8BC08BC9E467047F8B500BFDF
:081A1C00F8BC08BC9E467047AF
:101A2400000000000000000001020304060708098A
:101A340002030405060708090A0B0C0D0E0F10100B
:041A4400010200009B
:041A48003101000860
:041A4C000D01000880
:0C1A50000024F400100000000100000061
:0400000508000BB92B
:00000001FF
